:100000000C9449000C94E5000C949E000C9475002F
:100010000C94E5000C94E5000C94E5000C94E500CC
:100020000C94E5000C94E5000C94E5000C94E500BC
:100030000C94E5000C94E5000C94E5000C94E500AC
:100040000C94E5000C94E5000C94E5000C94E5009C
:100050000C94E5000C94E5000C94E5000C94E5008C
:100060000C94E5000C94E5000C94E5000C94E5007C
:100070000C94E5000C94E5000C94E5000C94E5006C
:100080000C94E5000C94E5000C94E50001000102DD
:10009000800011241FBECFEFD0E1DEBFCDBFECE862
:1000A000F0E040E019C0B791A791379127910791EF
:1000B00007FD0EC097918791EF01F92FE82F0BBF35
:1000C00007900D92A217B307D9F7FE011BBE04C01B
:1000D0001D92A217B307E1F7E139F40721F70E9457
:0A00E000C5000C947300F894FFCFE4
:1000EA001F920F920FB60F9211248F939F938091B4
:1000FA000001909101010197909301018093000101
:10010A00992334F487E090E09093010180930001F1
:10011A0081E090E00090000102C0880F991F0A94C4
:10012A00E2F788BB9F918F910F900FBE0F901F909F
:02013A00189516
:10013C001F920F920FB60F9211248F939F93809161
:10014C0000019091010101969093010180930001AF
:10015C00089724F0109201011092000181E090E0C8
:10016C000090000102C0880F991F0A94E2F788BB27
:0E017C009F918F910F900FBE0F901F901895BE
:10018A0011BA8FEF87BBEAE6F0E080818C63808347
:10019A0089B7866089BF789484EF91E00E94D6007F
:0201AA00FBCF89
:1001AC0020E030E008C0EFECF7E03197F1F700C049
:0E01BC0000002F5F3F4F28173907ACF308955E
:0401CA000C94000091
:00000001FF
