:100000000C944A000C94B3000C94B3000C94B3000D
:100010000C94B3000C94B3000C94B3000C94B30094
:100020000C94B3000C94B3000C94B3000C94B30084
:100030000C94B3000C94B3000C94B3000C94B30074
:100040000C94B3000C94B3000C94B3000C94B30064
:100050000C94B3000C94B3000C94B3000C94B30054
:100060000C94B3000C94B3000C94B3000C94B30044
:100070000C94B3000C94B3000C94B3000C94B30034
:100080000C94B3000C94B3000C94B3000100011065
:1000900000016A0011241FBECFEFD0E1DEBFCDBF4B
:1000A000ECE8F0E040E019C0B791A79137912791B3
:1000B000079107FD0EC097918791EF01F92FE82F67
:1000C0000BBF07900D92A217B307D9F7FE011BBE15
:1000D00004C01D92A217B307E1F7E339F40721F733
:0C00E0000E9476000C947400F894FFCF8E
:1000EC00CF93DF93CDB7DEB760970FB6F894DEBF32
:1000FC000FBECDBF8FEF81BB80E1E0E0F1E0DE0110
:10010C00119601900D928A95E1F700E010E0F8014C
:10011C00EE0FFF1F81E090E08C0F9D1FE80FF91F81
:10012C00808182BB0F5F1F4F0830110514F000E077
:0C013C0010E082E390E00E94A400E9CFF4
:1001480020E030E008C0EFECF7E03197F1F700C0AD
:0E01580000002F5F3F4F28173907ACF30895C2
:040166000C940000F5
:10016A000100020004000800100020004000800086
:00000001FF
