:100000000C9455000C94BB030C94BB030C94BB03E1
:100010000C94BB030C9448030C9457030C94660394
:100020000C9475030C9481000C94BB030C94BB03DB
:100030000C94BB030C94BB030C94BB030C94BB0348
:100040000C94BB030C94BB030C94BB030C94BB0338
:100050000C94BB030C94BB030C94BB030C94BB0328
:100060000C94BB030C94BB030C94BB030C94BB0318
:100070000C94BB030C94BB030C94BB030C94BB0308
:100080000C94BB030C94BB030C94BB03010001282C
:10009000800128013A00077A013A013E80013E01C1
:1000A0004000078C01400141800011241FBECFEFAA
:1000B000D0E1DEBFCDBFECE8F0E040E019C0B79181
:1000C000A79137912791079107FD0EC097918791CE
:1000D000EF01F92FE82F0BBF07900D92A217B3077E
:1000E000D9F7FE011BBE04C01D92A217B307E1F7AA
:1000F000E93AF40721F70E9464020C947F00F89417
:02010000FFCF2F
:100102001F920F920FB60F9211240BB60F922F93DC
:100112003F934F935F936F937F938F939F93AF938D
:10012200BF93EF93FF9380913C0190913D01019623
:1001320090933D0180933C01209138013091390127
:1001420028173907C4F580913A0190913B01059730
:100152007CF02E30310534F02250310930933901D0
:100162002093380110923B0110923A0181E001C0C4
:1001720080E090914001913049F028F0923049F0AE
:10018200933051F00BC00E94CD0208C00E940F03B1
:1001920005C00E94E30202C00E94F90280913A0166
:1001A20090913B01019690933B0180933A0110920A
:1001B2003D0110923C01FF91EF91BF91AF919F9150
:1001C2008F917F916F915F914F913F912F910F90FE
:0C01D2000BBE0F900FBE0F901F901895F1
:1001DE000F931F93CF93DF93CDB7DEB760970FB614
:1001EE00F894DEBF0FBECDBFFE01319680E1DF0178
:1001FE001D928A95E9F700E010E026C0C8010E9422
:10020E0081036130710559F09B012250310941E0A3
:10021E0050E002C0440F551F2A95E2F702C040E895
:10022E0050E0FC013197EE0FFF1F81E090E08C0F44
:10023E009D1FE80FF91F20813181C901842B952B59
:10024E00918380830F5F1F4F0E94AF03081719071A
:10025E00ACF200E010E00FC0C801880F991FE1E07A
:10026E00F0E0EC0FFD1FE80FF91F608171810E9415
:10027E0025030F5F1F4F0830110574F360960FB6FC
:10028E00F894DEBF0FBECDBFDF91CF911F910F91BE
:02029E000895C1
:1002A0000F931F9360913E0170913F016A30710579
:1002B00009F480E041E050E024C02AE030E0241B53
:1002C000350BFB013196E217F307CCF0A9E0B0E063
:1002D000A41BB50B220F331F220F331FF901E0506F
:1002E000FF4FAA0FBB1FAA0FBB1FA050BF4F0D91FE
:1002F0001D912D913C9100831183228333834F5FA5
:100300005F4F4A305105CCF2811110C06A3071053F
:10031000B4F4FB013196EE0FFF1FEE0FFF1FE0500C
:10032000FF4F108211821282138209C06A30710558
:1003300034F46F5F7F4F70933F0160933E011F91D4
:040340000F9108957C
:100344000F931F93CF93DF93CDB7DEB760970FB6AC
:10035400F894DEBF0FBECDBF80E1E8E2F1E0DE013C
:10036400119601900D928A95E1F700E010E00FC01C
:10037400C801880F991FE1E0F0E0EC0FFD1FE80FC2
:10038400F91F608171810E9425030F5F1F4F0830A0
:10039400110574F360960FB6F894DEBF0FBECDBF9F
:0A03A400DF91CF911F910F91089592
:1003AE00CF93DF93C1E0D0E023C0FE01EE0FFF1F1D
:1003BE00EE0FFF1FE050FF4F208131818091000131
:1003CE00909101012817390791F4FE01EE0FFF1FDE
:1003DE00EE0FFF1FE050FF4F22813381809102010B
:1003EE00909103012817390711F40E949E0221965D
:1003FE0080913E0190913F010197C817D907ACF249
:06040E00DF91CF9108957B
:1004140060E070E080E090E00E94250360E070E01E
:1004240082E090E00E94250360E070E084E090E0C8
:100434000E94250360E070E086E090E00E942503BE
:1004440060E070E088E090E00E94250360E070E0E6
:100454008AE090E00E94250360E070E08CE090E088
:100464000E94250360E070E08EE090E00E94250386
:020474000895E9
:100476000E94970380EE0E948D0381E20E948D0305
:100486000E94B4030E94970380EE0E948D0380EAC7
:100496000E948D030E94B4030E94970380EE0E947F
:1004A6008D0383EE0E948D030E94B4030E9497037E
:1004B60080EE0E948D0381E80E948D030E94B403A2
:0204C600089597
:1004C8008FEF8ABF83BD80EF89BF80E887BF7894AC
:1004D8008DE185BD12B80E949F030E943B020E94D5
:1004E80082020E940A0284EF91E00E9439030E946E
:0C04F800EF0084EF91E00E943903F9CF7F
:1005040080E090E011C0AC014D5F5F4F66E070E0A9
:10051400FC01EE0FFF1FEE0FFF1FE050FF4F408363
:10052400518362837383019620913E0130913F0190
:080534008217930744F30895B8
:10053C0083E090E090933F0180933E010E94A201E2
:10054C000E94B60280E090E00E94AA0380E00E9424
:10055C00B80389E190E00E94A5030E9482020895ED
:10056C0080E090E010C040E050E060E070E0FC0102
:10057C00EE0FFF1FEE0FFF1FE050FF4F4083518324
:0E058C006283738301968A3091056CF30895A3
:10059A0020910201309103012130310519F40E94A2
:1005AA009E0208950E945001E0E0F1E08281938169
:0C05BA000197938382830E94D70108956B
:1005C60020910201309103012830310519F40E946F
:1005D6009E0208950E945001E0E0F1E0828193813D
:0C05E6000196938382830E94D701089540
:1005F20020910001309101012130310519F40E944E
:100602009E0208950E945001E0E0F1E08081918114
:0C0612000197918380830E94D701089516
:10061E0020910001309101012830310519F40E941A
:10062E009E0208950E945001E0E0F1E080819181E8
:0C063E000196918380830E94D7010895EB
:10064A00CF93DF93D82FC62F0E94970380EE0E9484
:10065A008D038D2F0E948D038C2F0E948D030E9483
:08066A00B403DF91CF91089564
:1006720020E030E008C0EFECF7E03197F1F700C07E
:0E06820000002F5F3F4F28173907ACF3089593
:100690001F920F920FB60F9211248F9383E08093D5
:0E06A00040018F910F900FBE0F901F90189584
:1006AE001F920F920FB60F9211248F9382E08093B8
:0E06BE0040018F910F900FBE0F901F90189566
:1006CC001F920F920FB60F9211248F9381E080939B
:0E06DC0040018F910F900FBE0F901F90189548
:1006EA001F920F920FB60F921124109240010F9091
:0806FA000FBE0F901F90189530
:10070200880F991F880F991FFC01E050FF4F6081ED
:08071200718182819381089539
:10071A008093730084E88093740080917400882326
:04072A00E4F7089553
:10072E0084EA80937400809174008823E4F708951E
:0C073E001092710080E28093700008951A
:0A074A00909339018093380108955F
:0A07540090933B0180933A01089551
:0A075E0080913E0190913F01089543
:0807680084E9809374000895F8
:0607700080934001089592
:040776000C940000DF
:10077A00C000210012000C000C0012002100C00071
:02078A00190054
:02078C00030068
:00000001FF
