:100000000C944C000C9458010C9458010C94580119
:100010000C9458010C9458010C9458010C945801FC
:100020000C9458010C9458010C9458010C945801EC
:100030000C9458010C9458010C9458010C945801DC
:100040000C9458010C9458010C9458010C945801CC
:100050000C9458010C9458010C9458010C945801BC
:100060000C9458010C9458010C9458010C945801AC
:100070000C9458010C9458010C9458010C9458019C
:100080000C9458010C9458010C945801010001285B
:10009000800128012A0002B411241FBECFEFD0E155
:1000A000DEBFCDBFECE8F0E040E019C0B791A7910A
:1000B00037912791079107FD0EC097918791EF0126
:1000C000F92FE82F0BBF07900D92A217B307D9F7AE
:1000D000FE011BBE04C01D92A217B307E1F7E83969
:1000E000F40721F70E94A9000C947600F894FFCF42
:1000F00060E070E080E890E00E94190160E070E04C
:1001000080E090E00E94190160E070E082E090E001
:100110000E94190160E070E084E090E00E94190103
:1001200060E070E086E090E00E94190160E070E01D
:1001300088E090E00E94190160E070E08AE090E0C1
:100140000E94190160E070E08CE090E00E941901CB
:02015000089510
:100152000E944E010E94D4000E94FD000E9478007D
:100162000E94460180EE0E943C0186E00E943C0112
:1001720080E00E943C010E94540184EF91E00E94C1
:100182002D010E94460180EE0E943C0186E00E9401
:100192003C0182E00E943C010E94540184EF91E004
:0601A2000E942D01DDCFDB
:1001A8000E94460180EE0E943C0181E20E943C01CF
:1001B8000E9454010E94460180EE0E943C0180EAA0
:1001C8000E943C010E9454010E94460180EE0E9458
:1001D8003C0183EE0E943C010E9454010E944601AA
:1001E80080EE0E943C0181E80E943C010E9454017B
:0201F800089568
:1001FA0080E090E011C0AC014D5F5F4F63E070E0BA
:10020A00FC01EE0FFF1FEE0FFF1FE050FF4F408370
:10021A0051836283738301962091280130912901C9
:08022A008217930744F30895C5
:10023200CF93DF93D82FC62F0E94460180EE0E94F3
:100242003C018D2F0E943C018C2F0E943C010E9498
:080252005401DF91CF910895E2
:10025A0020E030E008C0EFECF7E03197F1F700C09A
:0E026A0000002F5F3F4F28173907ACF30895AF
:100278008093730084E880937400809174008823CD
:04028800E4F70895FA
:10028C0084EA80937400809174008823E4F70895C5
:0C029C001092710080E2809370000895C1
:0802A80084E9809374000895BD
:0402B0000C940000AA
:0202B400030045
:00000001FF
