:100000000C9446000C941E010C941E010C941E01CD
:100010000C941E010C941E010C941E010C941E01E4
:100020000C941E010C941E010C941E010C941E01D4
:100030000C941E010C941E010C941E010C941E01C4
:100040000C941E010C941E010C941E010C941E01B4
:100050000C941E010C941E010C941E010C941E01A4
:100060000C941E010C941E010C941E010C941E0194
:100070000C941E010C941E010C941E010C941E0184
:100080000C941E010C941E010C941E0111241FBE21
:10009000CFEFD0E1DEBFCDBFECE8F0E040E019C02B
:1000A000B791A79137912791079107FD0EC09791BE
:1000B0008791EF01F92FE82F0BBF07900D92A21740
:1000C000B307D9F7FE011BBE04C01D92A217B307E8
:1000D000E1F7EC38F40721F70E9472000C947000ED
:0400E000F894FFCFC2
:1000E4000E9414010E940C0180EE0E94020181E230
:1000F4000E9402010E941A010E940C0180EE0E94DB
:10010400020180EA0E9402010E941A010E940C016D
:1001140080EE0E94020183EE0E9402010E941A01F5
:100124000E940C0180EE0E94020181E80E940201FB
:100134000E941A010E940C0180EE0E94020182E0DA
:100144000E94020180E00E9402010E941A010E94A2
:100154000C0180EE0E94020184E00E94020180E012
:100164000E9402010E941A010E940C0180EE0E946A
:10017400020186E00E94020180E00E9402010E94C6
:100184001A010E940C0180EE0E94020188E00E9484
:10019400020180E00E9402010E941A010E940C01E7
:1001A40080EE0E94020184E00E94020180E00E942D
:1001B40002010E941A0184EF91E00E94F3000E9460
:1001C4000C0180EE0E94020184E00E94020188E09A
:1001D4000E9402010E941A0184EF91E00E94F30040
:0201E400DDCF6D
:1001E60020E030E008C0EFECF7E03197F1F700C00F
:0E01F60000002F5F3F4F28173907ACF3089524
:100204008093730084E88093740080917400882341
:04021400E4F708956E
:1002180084EA80937400809174008823E4F7089539
:0C0228001092710080E280937000089535
:0802340084E980937400089531
:04023C000C9400001E
:00000001FF
