:100000000C9449000C94E0000C94E0000C94E00087
:100010000C94E0000C94E0000C94E0000C94E000E0
:100020000C94E0000C94E0000C94E0000C94E000D0
:100030000C94E0000C94E0000C94E0000C94E000C0
:100040000C94E0000C94E0000C94E0000C94E000B0
:100050000C94E0000C94E0000C94E0000C94E000A0
:100060000C94E0000C94E0000C94E0000C94E00090
:100070000C94E0000C94E0000C94E0000C94E00080
:100080000C94E0000C94E0000C94E00001000102EC
:10009000800011241FBECFEFD0E1DEBFCDBFECE862
:1000A000F0E040E019C0B791A791379127910791EF
:1000B00007FD0EC097918791EF01F92FE82F0BBF35
:1000C00007900D92A217B307D9F7FE011BBE04C01B
:1000D0001D92A217B307E1F7E139F40721F70E9457
:0A00E0007D000C947300F894FFCF2C
:0F00EA003F065B4F666D7D077F6F777C395E79D0
:1000FA008FEF81BB12BA81E088BB789484E090E0EC
:10010A00909301018093000188EC90E00E94B00076
:10011A0080910001909101010E949E0086B3813076
:10012A0011F40E94CD0086B3823071F70E94BF009D
:02013A00EBCF09
:10013C008031910560F4092E000CAA0B86519F4F5B
:10014C00AF4FFC015A2F0E94D90062BB089589E77A
:04015C0082BB0895C5
:1001600020E030E008C0EFECF7E03197F1F700C095
:0E01700000002F5F3F4F28173907ACF30895AA
:10017E0080910001909101019C0121503109309331
:0C018E000101209300010E949E000895D2
:10019A008091000190910101019690930101809351
:0801AA0000010E949E0008956F
:0E01B20057FD03C05BBF6791089560810895FB
:0401C0000C9400009B
:00000001FF
