:100000000C944C000C9461020C9461020C946102FB
:100010000C9461020C9408010C9434010C9460015E
:100020000C948C010C9461020C9461020C9461029A
:100030000C9461020C9461020C9461020C946102B4
:100040000C9461020C9461020C9461020C946102A4
:100050000C9461020C9461020C9461020C94610294
:100060000C9461020C9461020C9461020C94610284
:100070000C9461020C9461020C9461020C94610274
:100080000C9461020C9461020C946102010001283D
:10009000800128012A0004C611241FBECFEFD0E141
:1000A000DEBFCDBFECE8F0E040E019C0B791A7910A
:1000B00037912791079107FD0EC097918791EF0126
:1000C000F92FE82F0BBF07900D92A217B307D9F7AE
:1000D000FE011BBE04C01D92A217B307E1F7E83969
:1000E000F40721F70E94FD010C947600F894FFCFED
:1000F0000F931F93CF93DF93CDB7DEB760970FB603
:10010000F894DEBF0FBECDBFFE01319680E1DF0166
:100110001D928A95E9F700E010E026C0C8010E9410
:1001200039026130710559F09B012150310941E0DC
:1001300050E002C0440F551F2A95E2F702C040E884
:1001400050E0FC013197EE0FFF1F81E090E08C0F33
:100150009D1FE80FF91F20813181C901842B952B48
:10016000918380830F5F1F4F0A301105BCF200E0BE
:1001700010E00FC0C801880F991FE1E0F0E0EC0F1C
:10018000FD1FE80FF91F608171810E9416020F5F49
:100190001F4F0830110574F360960FB6F894DEBF58
:0E01A0000FBECDBFDF91CF911F910F9108953B
:1001AE0060E070E080E090E00E94160260E070E097
:1001BE0082E090E00E94160260E070E084E090E041
:1001CE000E94160260E070E086E090E00E94160247
:1001DE0060E070E088E090E00E94160260E070E05F
:1001EE008AE090E00E94160260E070E08CE090E001
:1001FE000E94160260E070E08EE090E00E9416020F
:02020E00089551
:100210001F920F920FB60F9211240BB60F922F93CD
:100220003F934F935F936F937F938F939F93AF937E
:10023000BF93EF93FF9360E870E088E090E00E9446
:100240001602FF91EF91BF91AF919F918F917F9196
:100250006F915F914F913F912F910F900BBE0F9037
:080260000FBE0F901F901895CE
:100268001F920F920FB60F9211240BB60F922F9375
:100278003F934F935F936F937F938F939F93AF9326
:10028800BF93EF93FF9360E870E086E090E00E94F0
:100298001602FF91EF91BF91AF919F918F917F913E
:1002A8006F915F914F913F912F910F900BBE0F90DF
:0802B8000FBE0F901F90189576
:1002C0001F920F920FB60F9211240BB60F922F931D
:1002D0003F934F935F936F937F938F939F93AF93CE
:1002E000BF93EF93FF9360E870E084E090E00E949A
:1002F0001602FF91EF91BF91AF919F918F917F91E6
:100300006F915F914F913F912F910F900BBE0F9086
:080310000FBE0F901F9018951D
:100318001F920F920FB60F9211240BB60F922F93C4
:100328003F934F935F936F937F938F939F93AF9375
:10033800BF93EF93FF9360E870E082E090E00E9443
:100348001602FF91EF91BF91AF919F918F917F918D
:100358006F915F914F913F912F910F900BBE0F902E
:080368000FBE0F901F901895C5
:100370000E944F0280EE0E94450281E20E944502E7
:100380000E945D020E944F0280EE0E94450280EAB8
:100390000E9445020E945D020E944F0280EE0E9470
:1003A000450283EE0E9445020E945D020E944F02B8
:1003B00080EE0E94450281E80E9445020E945D0293
:0203C00008959E
:1003C20080E090E011C0AC014D5F5F4F63E070E0F0
:1003D200FC01EE0FFF1FEE0FFF1FE050FF4F4083A7
:1003E2005183628373830196209128013091290100
:0803F2008217930744F30895FC
:1003FA008FEF8ABF80EF89BF789412B80E945702A4
:10040A000E94B8010E94E1010E94D70084EF91E0A6
:10041A000E942A020E9478008AE090E00E942A0242
:02042A00F9CF08
:10042C00CF93DF93D82FC62F0E944F0280EE0E94ED
:10043C0045028D2F0E9445028C2F0E9445020E947E
:08044C005D02DF91CF910895DC
:1004540020E030E008C0EFECF7E03197F1F700C09E
:0E04640000002F5F3F4F28173907ACF30895B3
:10047200880F991F880F991FFC01E050FF4F608180
:080482007181828193810895CC
:10048A008093730084E880937400809174008823B9
:04049A00E4F70895E6
:10049E0084EA80937400809174008823E4F70895B1
:0C04AE001092710080E2809370000895AD
:0804BA0084E9809374000895A9
:0404C2000C94000096
:0204C600030031
:00000001FF
