:100000000C9446000C946B000C946B000C946B00E9
:100010000C946B000C946B000C946B000C946B00B4
:100020000C946B000C946B000C946B000C946B00A4
:100030000C946B000C946B000C946B000C946B0094
:100040000C946B000C946B000C946B000C946B0084
:100050000C946B000C946B000C946B000C946B0074
:100060000C946B000C946B000C946B000C946B0064
:100070000C946B000C946B000C946B000C946B0054
:100080000C946B000C946B000C946B0011241FBE3D
:10009000CFEFD0E1DEBFCDBF0E9461000C945000D5
:0400A000F894FFCF02
:1000A40020E030E008C0EFECF7E03197F1F700C052
:0E00B40000002F5F3F4F28173907ACF3089567
:1000C2008FEF81BB12BA81E088BB88E998E00E9479
:0400D2005200FBCF0E
:0400D6000C94000086
:00000001FF
