:100000000C9446000C947A000C947A000C947A00BC
:100010000C947A000C947A000C947A000C947A0078
:100020000C947A000C947A000C947A000C947A0068
:100030000C947A000C947A000C947A000C947A0058
:100040000C947A000C947A000C947A000C947A0048
:100050000C947A000C947A000C947A000C947A0038
:100060000C947A000C947A000C947A000C947A0028
:100070000C947A000C947A000C947A000C947A0018
:100080000C947A000C947A000C947A0011241FBE10
:10009000CFEFD0E1DEBFCDBF0E9452000C945000E4
:0400A000F894FFCF02
:1000A4008FEF81BBC4EFD1E002C0C4EFD1E080E8A0
:1000B40082BBCE010E946B0012BACE010E946B007B
:1000C40083B38130A1F7C43FD14079F7CDE7D0E0C5
:0200D400EECF6D
:1000D60020E030E008C0EFECF7E03197F1F700C020
:0E00E60000002F5F3F4F28173907ACF3089535
:0400F4000C94000068
:00000001FF
