:100000000C944A000C94CC000C94CC000C94CC00C2
:100010000C94CC000C94CC000C94CC000C94CC0030
:100020000C94CC000C94CC000C94CC000C94CC0020
:100030000C94CC000C94CC000C94CC000C94CC0010
:100040000C94CC000C94CC000C94CC000C94CC0000
:100050000C94CC000C94CC000C94CC000C94CC00F0
:100060000C94CC000C94CC000C94CC000C94CC00E0
:100070000C94CC000C94CC000C94CC000C94CC00D0
:100080000C94CC000C94CC000C94CC000100010624
:1000900000019C0011241FBECFEFD0E1DEBFCDBF19
:1000A000ECE8F0E040E019C0B791A79137912791B3
:1000B000079107FD0EC097918791EF01F92FE82F67
:1000C0000BBF07900D92A217B307D9F7FE011BBE15
:1000D00004C01D92A217B307E1F7E339F40721F733
:0C00E0000E94AB000C947400F894FFCF59
:1000EC0083309105D1F034F48130910551F00297B1
:1000FC0071F0089585309105E1F0ACF00697F9F0B8
:10010C0008958BEF81BB8091000182BB08958BEF2A
:10011C0081BB8091020182BB08958EEF81BB8091DF
:10012C00020182BB08958EEF81BB8091040182BBDA
:10013C0008958DEF81BB8091000182BB08958DEFF6
:0A014C0081BB8091040182BB08957D
:100156008FEF81BBC1E0D0E0CE010E9476002196F0
:10016600C730D10514F0C1E0D0E084EF91E00E94E1
:04017600BD00F2CF07
:10017A0020E030E008C0EFECF7E03197F1F700C07B
:0E018A0000002F5F3F4F28173907ACF3089590
:040198000C940000C3
:06019C0001000200040056
:00000001FF
