:100000000C9455000C9449030C9449030C94490337
:100010000C9449030C94D6020C94E5020C94F4025F
:100020000C9403030C9481000C9449030C94490331
:100030000C9449030C9449030C9449030C94490310
:100040000C9449030C9449030C9449030C94490300
:100050000C9449030C9449030C9449030C944903F0
:100060000C9449030C9449030C9449030C944903E0
:100070000C9449030C9449030C9449030C944903D0
:100080000C9449030C9449030C9449030100012882
:10009000800128012A000696012A012E80012E01E6
:1000A0003000069801300131800011241FBECFEFCF
:1000B000D0E1DEBFCDBFECE8F0E040E019C0B79181
:1000C000A79137912791079107FD0EC097918791CE
:1000D000EF01F92FE82F0BBF07900D92A217B3077E
:1000E000D9F7FE011BBE04C01D92A217B307E1F7AA
:1000F000E93AF40721F70E94FC010C947F00F89480
:02010000FFCF2F
:100102001F920F920FB60F9211240BB60F922F93DC
:100112003F934F935F936F937F938F939F93AF938D
:10012200BF93EF93FF9380912C0190912D01019643
:1001320090932D0180932C01209128013091290167
:1001420028173907C4F580912A0190912B01059750
:100152007CF02E30310534F02250310930932901E0
:100162002093280110922B0110922A0181E001C0F4
:1001720080E090913001913049F028F0923049F0BE
:10018200933051F00BC00E94770208C00E94B30264
:1001920005C00E948B0202C00E949F0280912A0128
:1001A20090912B01019690932B0180932A0110923A
:1001B2002D0110922C01FF91EF91BF91AF919F9170
:1001C2008F917F916F915F914F913F912F910F90FE
:0C01D2000BBE0F900FBE0F901F901895F1
:1001DE000F931F93CF93DF93CDB7DEB760970FB614
:1001EE00F894DEBF0FBECDBFFE01319680E1DF0178
:1001FE001D928A95E9F700E010E026C0C8010E9422
:10020E000F036130710559F09B012250310941E015
:10021E0050E002C0440F551F2A95E2F702C040E895
:10022E0050E0FC013197EE0FFF1F81E090E08C0F44
:10023E009D1FE80FF91F20813181C901842B952B59
:10024E00918380830F5F1F4F0E943D03081719078C
:10025E00ACF200E010E00FC0C801880F991FE1E07A
:10026E00F0E0EC0FFD1FE80FF91F608171810E9415
:10027E0063020F5F1F4F0830110574F360960FB6BF
:10028E00F894DEBF0FBECDBFDF91CF911F910F91BE
:02029E000895C1
:1002A0000F931F9360912E0170912F016A30710599
:1002B00009F480E041E050E024C02AE030E0241B53
:1002C000350BFB013196E217F307CCF0A9E0B0E063
:1002D000A41BB50B220F331F220F331FF901E0506F
:1002E000FF4FAA0FBB1FAA0FBB1FA050BF4F0D91FE
:1002F0001D912D913C9100831183228333834F5FA5
:100300005F4F4A305105CCF2811110C06A3071053F
:10031000B4F4FB013196EE0FFF1FEE0FFF1FE0500C
:10032000FF4F108211821282138209C06A30710558
:1003300034F46F5F7F4F70932F0160932E011F91F4
:040340000F9108957C
:1003440060E070E080E090E00E94630260E070E0B2
:1003540082E090E00E94630260E070E084E090E05C
:100364000E94630260E070E086E090E00E94630215
:1003740060E070E088E090E00E94630260E070E07A
:100384008AE090E00E94630260E070E08CE090E01C
:100394000E94630260E070E08EE090E00E946302DD
:0203A4000895BA
:1003A6000E94250380EE0E941B0381E20E941B032C
:1003B6000E9442030E94250380EE0E941B0380EAEE
:1003C6000E941B030E9442030E94250380EE0E94A6
:1003D6001B0383EE0E941B030E9442030E94250317
:1003E60080EE0E941B0381E80E941B030E944203C9
:0203F600089568
:1003F8008FEF8ABF83BD80EF89BF80E887BF78947D
:100408008DE185BD12B80E942D030E94D3010E9480
:100418001A020E94A20184EF91E00E94C7020E9482
:0C042800EF0084EF91E00E94C702F9CFC2
:1004340080E090E011C0AC014D5F5F4F66E070E07A
:10044400FC01EE0FFF1FEE0FFF1FE050FF4F408334
:10045400518362837383019620912E0130912F0181
:080464008217930744F3089589
:10046C0080E090E010C040E050E060E070E0FC0103
:10047C00EE0FFF1FEE0FFF1FE050FF4F4083518325
:0E048C006283738301968A3091056CF30895A4
:10049A0083E090E090932F0180932E010E94360210
:1004AA0080E090E00E94380380E00E94460389E1E0
:0C04BA0090E00E9433030E941A02089593
:1004C600CF93DF93D82FC62F0E94250380EE0E947C
:1004D6001B038D2F0E941B038C2F0E941B030E945F
:0804E6004203DF91CF9108955C
:1004EE0020910201309103012130310519F40E944F
:1004FE004D0208950E945001E0E0F1E08281938167
:08050E00019793838283089595
:1005160020910201309103012830310519F40E941F
:100526004D0208950E945001E0E0F1E0828193813E
:0805360001969383828308956E
:10053E0020910001309101012130310519F40E9402
:10054E004D0208950E945001E0E0F1E0808191811A
:08055E00019791838083089549
:1005660020910001309101012830310519F40E94D3
:100576004D0208950E945001E0E0F1E080819181F2
:08058600019691838083089522
:10058E0020E030E008C0EFECF7E03197F1F700C063
:0E059E0000002F5F3F4F28173907ACF3089578
:1005AC001F920F920FB60F9211248F9383E08093BA
:0E05BC0030018F910F900FBE0F901F90189579
:1005CA001F920F920FB60F9211248F9382E080939D
:0E05DA0030018F910F900FBE0F901F9018955B
:1005E8001F920F920FB60F9211248F9381E0809380
:0E05F80030018F910F900FBE0F901F9018953D
:100606001F920F920FB60F921124109230010F9085
:080616000FBE0F901F90189514
:10061E00880F991F880F991FFC01E050FF4F6081D2
:08062E0071818281938108951E
:100636008093730084E8809374008091740088230B
:04064600E4F7089538
:10064A0084EA80937400809174008823E4F7089503
:0C065A001092710080E2809370000895FF
:0A0666009093290180932801089564
:0A06700090932B0180932A01089556
:0A067A0080912E0190912F01089548
:0806840084E9809374000895DD
:06068C0080933001089587
:040692000C940000C4
:02069600190049
:0206980003005D
:00000001FF
