:100000000C9446000C9405040C9405040C9405040F
:100010000C9405040C9405040C9405040C9405043C
:100020000C9405040C9405040C9405040C9405042C
:100030000C9405040C9405040C9405040C9405041C
:100040000C9405040C9405040C9405040C9405040C
:100050000C9405040C9405040C9405040C940504FC
:100060000C9405040C9405040C9405040C940504EC
:100070000C9405040C9405040C9405040C940504DC
:100080000C9405040C9405040C94050411241FBE63
:10009000CFEFD0E1DEBFCDBF0E9416030C9450001D
:0400A000F894FFCF02
:0300A400256400D0
:1000A8002F923F924F926F927F928F929F92AF9230
:1000B800BF92CF92DF92EF92FF920F931F93CF934D
:1000C800DF93CDB7DEB762970FB6F894DEBF0FBEE9
:1000D800CDBF6C013A01862E7901FC01108617828A
:1000E800848181FFEBC19E012F5F3F4F3D872C87A5
:1000F800C901A0E8888B998BAA8B9FE3992EF301FD
:10010800582D0E94F903862F662309F4D3C1482D80
:1001180093012F5F3F4F4F4F653219F03901842EFD
:100128000BC0F901542F0E94F903862F92E0690E43
:10013800711C811C653229F4B60190E00E94DA0234
:10014800DECFB12C00E010E01032A0F48B3269F061
:1001580030F4803259F0833269F410612CC08D324A
:1001680039F0803339F4116026C01260146023C05E
:10017800186021C017FD2AC090ED980F9A3078F4C6
:1001880016FF06C0AAE0BA9E900D1124B92E13C01E
:10019800EAE00E9F900D1124092F10620CC08E32D8
:1001A80021F416FD87C1106406C08C3611F410685E
:1001B80002C0883659F4F301582D0E94F903862F9E
:1001C800FFEF6F1A7F0A8F0A6111BECF982F9F7DAC
:1001D8009554933028F424E0E20EF11C99820FC064
:1001E800833631F0833791F0833509F064C027C036
:1001F800F7018081898397012E5F3F4F7901288815
:1002080039884A88AA24A394B12C17C0A7014D5F46
:100218005F4F5F874E87F70120803180428016FF4D
:1002280003C04B2D50E002C04FEF5FEF842DB101AA
:100238000E94BB035C01EE84FF841F7718C09701FE
:100248002D5F3F4F3F872E87F70120803180428006
:1002580016FF03C04B2D50E002C04FEF5FEF842D17
:10026800B1010E94BB035C011068EE84FF8413FD9A
:100278001EC0802F90E0A816B906C8F4B60180E227
:1002880090E00E94DA020150F4CFF101542D0E944F
:10029800F903862FFFEF2F1A3F0A4F0AB60190E0A5
:1002A8000E94DA020111015021E0A21AB108A1143A
:1002B800B10459F7F5C0843611F0893671F5F701A4
:1002C80017FF08C0608171818281938197012C5F3B
:1002D8003F4F09C060817181072E000C880B990B74
:1002E80097012E5F3F4F79011F76312E97FF0AC085
:1002F80090958095709561957F4F8F4F9F4F312FC7
:100308003068332E2AE030E0AE014F5F5F4F0E9425
:100318007C02482E4C85441A4AC0853729F41F7E32
:10032800A12E2AE030E025C0512F597FA52E8F3607
:10033800C1F018F4883579F0BDC0803719F08837D6
:1003480021F0B8C0852F8061A82EA4FE0DC09A2D7B
:100358009460A92E09C014FF0AC0A52FA660AA2E72
:1003680006C028E030E005C020E130E002C020E10E
:1003780032E0F701A7FE08C0608171818281938114
:10038800A7014C5F5F4F07C06081718180E090E0FA
:10039800A7014E5F5F4F7A01AE014F5F5F4F0E942A
:1003A8007C02482E5C85451A8A2D8F77382E36FEBA
:1003B8000DC0932D9E7FA92E4B1458F434FE0BC00C
:1003C80032FC09C0A32DAE7EAA2E05C0142DA32C85
:1003D80003C0142D01C01B2DA4FE0EC0FE01E40DA8
:1003E800F11D8081803321F4EA2DE97EAE2E08C00C
:1003F800A2FE05C01E5F04C08A2D867809F01F5F23
:10040800A3FC11C0A0FE06C0101788F4040DB02E7E
:10041800B11A0EC0101760F4B60180E290E00E9495
:10042800DA021F5FF7CF101718F4011B02C0B42CB3
:1004380000E0A4FE10C0B60180E390E00E94DA025A
:10044800A2FE17C0A1FC03C088E790E002C088E5BF
:1004580090E0B6010CC08A2D867859F0A1FE02C042
:100468008BE201C080E2A7FC8DE2B60190E00E9419
:10047800DA024B1438F4B60180E390E00E94DA0205
:10048800BA94F7CF4A94E1E0F0E0EC0FFD1FE40DD9
:10049800F11D8081B60190E00E94DA024110F2CF8E
:1004A800002309F42CCEB60180E290E00E94DA0223
:1004B8000150F6CFF6018781908502C08FEF9FEF3C
:1004C80062960FB6F894DEBF0FBECDBFDF91CF9115
:1004D8001F910F91FF90EF90DF90CF90BF90AF905A
:1004E8009F908F907F906F904F903F902F9008959E
:1004F800FA01AA27283051F1203181F1E8946F934D
:100508006E7F6E5F7F4F8F4F9F4FAF4FB1E03ED0F2
:10051800B4E03CD0670F781F891F9A1FA11D680F90
:10052800791F8A1F911DA11D6A0F711D811D911DC3
:10053800A11D20D009F468943F912AE0269F112438
:100548003019305D3193DEF6CF010895462F47709C
:10055800405D4193B3E00FD0C9F7F6CF462F4F70F7
:10056800405D4A3318F0495D31FD4052419302D055
:10057800A9F7EACFB4E0A6959795879577956795FB
:10058800BA95C9F700976105710508959B01AC01FB
:100598000A2E06945795479537952795BA95C9F722
:0C05A800620F731F841F951FA01D089593
:1005B4000F931F93CF93DF93FB01248121FD03C08D
:1005C4008FEF9FEF2CC022FF16C0478150852581F5
:1005D40036814217530744F4A081B1819D012F5FF6
:1005E4003F4F318320838C93278130852F5F3F4F8A
:1005F4003087278314C08B01EC01FB010184F28551
:10060400E02D0995892BE1F6D80117968D919C91DF
:100614001897019618969C938E931797CE01DF91A5
:08062400CF911F910F91089581
:10062C000E947B03109261008FEF8ABB0E94000432
:10063C0086B1806486B93699FECF85B18BBB25B166
:10064C0084B190E0982F8827820F911D9F938F93F0
:10065C0084EA90E0A0E0AF939F938F93C0E0CF9398
:10066C00D0E0DF930E944B038D2F9C2F0E949E03A2
:10067C0084EF91E00E94EA038DB79EB707960FB600
:0A068C00F8949EBF0FBE8DBFD3CFC0
:100696000F931F93CF93DF93CDB7DEB72F970FB688
:1006A600F894DEBF0FBECDBF0E891F8986E08D830D
:1006B6001A8309838FEF9FE79F838E839E01255EB2
:1006C6003F4F488D598D6A8DCE0101960E94540088
:1006D600E885F985E00FF11F10822F960FB6F89482
:1006E600DEBF0FBECDBFDF91CF911F910F91089551
:1006F600CF938FEF84BB85BB81BB8ABB15BA1BBA70
:10070600C0E2C5BB0E94D703C5BB0E94D70380E8E1
:1007160085BB0E94D70315BA0E94D70380EF85BB1D
:100726000E94D70315BA0E94D70380E685BB0E94B4
:06073600D703CF910895E6
:10073C000F931F93CF938C0110C0C5BB8BB38061FB
:10074C008BBB0E94D703C295C07FC5BB8BB38061A6
:10075C008BBB0E94D7030F5F1F4FF801C081C111E3
:0A076C00ECCFCF911F910F9108957B
:10077600CF92DF92EF926B01E82E9A01A82FCB0160
:100786002115310531F48C199D09EF90DF90CF903A
:100796000895FC015A2F0E94F9036623A1F30196DE
:0807A600A11D21503109ECCF27
:1007AE008BB380648BBB8FEC97E00197F1F700C0A1
:1007BE0000008BB38F7B8BBB8FEC97E00197F1F72B
:0607CE0000C000000895C8
:1007D40020E030E008C0EFECF7E03197F1F700C01B
:0E07E40000002F5F3F4F28173907ACF3089530
:0E07F20057FD03C05BBF6791089560810895B5
:0A08000081EE87B986E886B90895F5
:04080A000C9400004A
:00000001FF
