:100000000C9446000C94CA000C94CA000C94CA00CC
:100010000C94CA000C94CA000C94CA000C94CA0038
:100020000C94CA000C94CA000C94CA000C94CA0028
:100030000C94CA000C94CA000C94CA000C94CA0018
:100040000C94CA000C94CA000C94CA000C94CA0008
:100050000C94CA000C94CA000C94CA000C94CA00F8
:100060000C94CA000C94CA000C94CA000C94CA00E8
:100070000C94CA000C94CA000C94CA000C94CA00D8
:100080000C94CA000C94CA000C94CA0011241FBE20
:10009000CFEFD0E1DEBFCDBF0E9452000C945000E4
:0400A000F894FFCF02
:1000A4000E94C0000E94B80080EE0E94AE0081E26F
:1000B4000E94AE000E94C6000E94B80080EE0E941A
:1000C400AE0080EA0E94AE000E94C6000E94B80002
:1000D40080EE0E94AE0083EE0E94AE000E94C60035
:1000E4000E94B80080EE0E94AE0081E80E94AE003B
:1000F4000E94C6000E94B80080EE0E94AE0084E018
:100104000E94AE0080E00E94AE000E94C60084EF10
:1001140091E00E949F000E94B80080EE0E94AE0011
:1001240084E00E94AE0088E00E94AE000E94C600F7
:0A01340084EF91E00E949F00DDCFF0
:10013E0020E030E008C0EFECF7E03197F1F700C0B7
:0E014E0000002F5F3F4F28173907ACF30895CC
:10015C008093730084E880937400809174008823EA
:04016C00E4F7089517
:1001700084EA80937400809174008823E4F70895E2
:0C0180001092710080E2809370000895DE
:08018C0084E9809374000895DA
:040194000C940000C7
:00000001FF
